{
  "contractName": "MedicalRecords",
  "abi": [
    {
      "inputs": [
        {
          "internalType": "address",
          "name": "a",
          "type": "address"
        }
      ],
      "payable": false,
      "stateMutability": "nonpayable",
      "type": "constructor"
    },
    {
      "anonymous": false,
      "inputs": [
        {
          "indexed": false,
          "internalType": "uint256",
          "name": "index",
          "type": "uint256"
        },
        {
          "indexed": false,
          "internalType": "string",
          "name": "name",
          "type": "string"
        },
        {
          "indexed": false,
          "internalType": "uint256",
          "name": "age",
          "type": "uint256"
        },
        {
          "indexed": false,
          "internalType": "string",
          "name": "contact",
          "type": "string"
        },
        {
          "indexed": false,
          "internalType": "string",
          "name": "homeAddress",
          "type": "string"
        }
      ],
      "name": "LogNewPatient",
      "type": "event"
    },
    {
      "constant": true,
      "inputs": [],
      "name": "SmartContractOwner",
      "outputs": [
        {
          "internalType": "address",
          "name": "",
          "type": "address"
        }
      ],
      "payable": false,
      "stateMutability": "view",
      "type": "function"
    },
    {
      "constant": false,
      "inputs": [
        {
          "internalType": "uint256",
          "name": "patID",
          "type": "uint256"
        },
        {
          "internalType": "string",
          "name": "name",
          "type": "string"
        },
        {
          "internalType": "uint256",
          "name": "age",
          "type": "uint256"
        },
        {
          "internalType": "string",
          "name": "contact",
          "type": "string"
        },
        {
          "internalType": "string",
          "name": "homeAddress",
          "type": "string"
        }
      ],
      "name": "addPatient",
      "outputs": [],
      "payable": false,
      "stateMutability": "nonpayable",
      "type": "function"
    },
    {
      "constant": true,
      "inputs": [
        {
          "internalType": "uint256",
          "name": "patID",
          "type": "uint256"
        }
      ],
      "name": "getPatient",
      "outputs": [
        {
          "internalType": "string",
          "name": "_name",
          "type": "string"
        },
        {
          "internalType": "uint256",
          "name": "_age",
          "type": "uint256"
        },
        {
          "internalType": "string",
          "name": "_contact",
          "type": "string"
        },
        {
          "internalType": "string",
          "name": "_homeAddress",
          "type": "string"
        }
      ],
      "payable": false,
      "stateMutability": "view",
      "type": "function"
    },
    {
      "constant": false,
      "inputs": [
        {
          "internalType": "uint256",
          "name": "patID",
          "type": "uint256"
        },
        {
          "internalType": "string",
          "name": "name",
          "type": "string"
        }
      ],
      "name": "setPatientName",
      "outputs": [],
      "payable": false,
      "stateMutability": "nonpayable",
      "type": "function"
    },
    {
      "constant": false,
      "inputs": [
        {
          "internalType": "uint256",
          "name": "patID",
          "type": "uint256"
        },
        {
          "internalType": "uint256",
          "name": "age",
          "type": "uint256"
        }
      ],
      "name": "setPatientAge",
      "outputs": [],
      "payable": false,
      "stateMutability": "nonpayable",
      "type": "function"
    },
    {
      "constant": false,
      "inputs": [
        {
          "internalType": "uint256",
          "name": "patID",
          "type": "uint256"
        },
        {
          "internalType": "string",
          "name": "contact",
          "type": "string"
        }
      ],
      "name": "setPatientContact",
      "outputs": [],
      "payable": false,
      "stateMutability": "nonpayable",
      "type": "function"
    },
    {
      "constant": false,
      "inputs": [
        {
          "internalType": "uint256",
          "name": "patID",
          "type": "uint256"
        },
        {
          "internalType": "string",
          "name": "homeAddress",
          "type": "string"
        }
      ],
      "name": "setPatientAddress",
      "outputs": [],
      "payable": false,
      "stateMutability": "nonpayable",
      "type": "function"
    },
    {
      "constant": true,
      "inputs": [
        {
          "internalType": "uint256",
          "name": "patID",
          "type": "uint256"
        }
      ],
      "name": "getPatientName",
      "outputs": [
        {
          "internalType": "string",
          "name": "",
          "type": "string"
        }
      ],
      "payable": false,
      "stateMutability": "view",
      "type": "function"
    },
    {
      "constant": true,
      "inputs": [
        {
          "internalType": "uint256",
          "name": "patID",
          "type": "uint256"
        }
      ],
      "name": "getPatientAge",
      "outputs": [
        {
          "internalType": "uint256",
          "name": "",
          "type": "uint256"
        }
      ],
      "payable": false,
      "stateMutability": "view",
      "type": "function"
    },
    {
      "constant": true,
      "inputs": [
        {
          "internalType": "uint256",
          "name": "patID",
          "type": "uint256"
        }
      ],
      "name": "getPatientContact",
      "outputs": [
        {
          "internalType": "string",
          "name": "",
          "type": "string"
        }
      ],
      "payable": false,
      "stateMutability": "view",
      "type": "function"
    },
    {
      "constant": true,
      "inputs": [
        {
          "internalType": "uint256",
          "name": "patID",
          "type": "uint256"
        }
      ],
      "name": "getPatientAddress",
      "outputs": [
        {
          "internalType": "string",
          "name": "",
          "type": "string"
        }
      ],
      "payable": false,
      "stateMutability": "view",
      "type": "function"
    },
    {
      "constant": false,
      "inputs": [
        {
          "internalType": "uint256",
          "name": "docID",
          "type": "uint256"
        },
        {
          "internalType": "string",
          "name": "name",
          "type": "string"
        },
        {
          "internalType": "string",
          "name": "medicalFacility",
          "type": "string"
        },
        {
          "internalType": "string",
          "name": "medicalSpecialty",
          "type": "string"
        }
      ],
      "name": "addDoctor",
      "outputs": [],
      "payable": false,
      "stateMutability": "nonpayable",
      "type": "function"
    },
    {
      "constant": true,
      "inputs": [
        {
          "internalType": "uint256",
          "name": "docID",
          "type": "uint256"
        }
      ],
      "name": "getDoctorDetails",
      "outputs": [
        {
          "internalType": "string",
          "name": "_name",
          "type": "string"
        },
        {
          "internalType": "string",
          "name": "_medicalFacility",
          "type": "string"
        },
        {
          "internalType": "string",
          "name": "_medicalSpecialty",
          "type": "string"
        }
      ],
      "payable": false,
      "stateMutability": "view",
      "type": "function"
    },
    {
      "constant": false,
      "inputs": [
        {
          "internalType": "uint256",
          "name": "patID",
          "type": "uint256"
        },
        {
          "internalType": "uint256",
          "name": "docID",
          "type": "uint256"
        }
      ],
      "name": "treatPatient",
      "outputs": [],
      "payable": false,
      "stateMutability": "nonpayable",
      "type": "function"
    },
    {
      "constant": false,
      "inputs": [
        {
          "internalType": "uint256",
          "name": "docID",
          "type": "uint256"
        },
        {
          "internalType": "string",
          "name": "name",
          "type": "string"
        }
      ],
      "name": "setDoctorName",
      "outputs": [],
      "payable": false,
      "stateMutability": "nonpayable",
      "type": "function"
    },
    {
      "constant": false,
      "inputs": [
        {
          "internalType": "uint256",
          "name": "docID",
          "type": "uint256"
        },
        {
          "internalType": "string",
          "name": "facility",
          "type": "string"
        }
      ],
      "name": "setDoctorMedicalFacility",
      "outputs": [],
      "payable": false,
      "stateMutability": "nonpayable",
      "type": "function"
    },
    {
      "constant": false,
      "inputs": [
        {
          "internalType": "uint256",
          "name": "docID",
          "type": "uint256"
        },
        {
          "internalType": "string",
          "name": "specialty",
          "type": "string"
        }
      ],
      "name": "setDoctorSpecialty",
      "outputs": [],
      "payable": false,
      "stateMutability": "nonpayable",
      "type": "function"
    },
    {
      "constant": true,
      "inputs": [
        {
          "internalType": "uint256",
          "name": "docID",
          "type": "uint256"
        }
      ],
      "name": "getDoctorName",
      "outputs": [
        {
          "internalType": "string",
          "name": "",
          "type": "string"
        }
      ],
      "payable": false,
      "stateMutability": "view",
      "type": "function"
    },
    {
      "constant": true,
      "inputs": [
        {
          "internalType": "uint256",
          "name": "docID",
          "type": "uint256"
        }
      ],
      "name": "getDoctorMedicalFacility",
      "outputs": [
        {
          "internalType": "string",
          "name": "",
          "type": "string"
        }
      ],
      "payable": false,
      "stateMutability": "view",
      "type": "function"
    },
    {
      "constant": true,
      "inputs": [
        {
          "internalType": "uint256",
          "name": "docID",
          "type": "uint256"
        }
      ],
      "name": "getDoctorSpecialty",
      "outputs": [
        {
          "internalType": "string",
          "name": "",
          "type": "string"
        }
      ],
      "payable": false,
      "stateMutability": "view",
      "type": "function"
    },
    {
      "constant": true,
      "inputs": [],
      "name": "getNumDoctors",
      "outputs": [
        {
          "internalType": "uint256",
          "name": "",
          "type": "uint256"
        }
      ],
      "payable": false,
      "stateMutability": "view",
      "type": "function"
    },
    {
      "constant": true,
      "inputs": [],
      "name": "getNumPatients",
      "outputs": [
        {
          "internalType": "uint256",
          "name": "",
          "type": "uint256"
        }
      ],
      "payable": false,
      "stateMutability": "view",
      "type": "function"
    },
    {
      "constant": false,
      "inputs": [
        {
          "internalType": "uint256",
          "name": "patientID",
          "type": "uint256"
        },
        {
          "internalType": "uint256",
          "name": "doctorID",
          "type": "uint256"
        },
        {
          "internalType": "string",
          "name": "diagnosis",
          "type": "string"
        },
        {
          "internalType": "string",
          "name": "medicine",
          "type": "string"
        }
      ],
      "name": "createTreatment",
      "outputs": [
        {
          "internalType": "uint256",
          "name": "",
          "type": "uint256"
        }
      ],
      "payable": false,
      "stateMutability": "nonpayable",
      "type": "function"
    },
    {
      "constant": true,
      "inputs": [
        {
          "internalType": "uint256",
          "name": "treatmentID",
          "type": "uint256"
        }
      ],
      "name": "getTreatmentDetails",
      "outputs": [
        {
          "internalType": "uint256",
          "name": "_patientID",
          "type": "uint256"
        },
        {
          "internalType": "uint256",
          "name": "_doctorID",
          "type": "uint256"
        },
        {
          "internalType": "string",
          "name": "_diagnosis",
          "type": "string"
        },
        {
          "internalType": "string",
          "name": "_medicine",
          "type": "string"
        },
        {
          "internalType": "uint256",
          "name": "_date",
          "type": "uint256"
        }
      ],
      "payable": false,
      "stateMutability": "view",
      "type": "function"
    },
    {
      "constant": false,
      "inputs": [
        {
          "internalType": "uint256",
          "name": "treatmentID",
          "type": "uint256"
        },
        {
          "internalType": "string",
          "name": "diagnosis",
          "type": "string"
        },
        {
          "internalType": "string",
          "name": "medicine",
          "type": "string"
        }
      ],
      "name": "editTreatmentDetails",
      "outputs": [],
      "payable": false,
      "stateMutability": "nonpayable",
      "type": "function"
    }
  ],
  "bytecode": "0x6080604052600060055534801561001557600080fd5b5060405162004572380380620045728339818101604052602081101561003a57600080fd5b8101908080519060200190929190505050336000806101000a81548173ffffffffffffffffffffffffffffffffffffffff021916908373ffffffffffffffffffffffffffffffffffffffff160217905550506144d6806200009c6000396000f3fe608060405234801561001057600080fd5b50600436106101735760003560e01c80638d848074116100de578063baadeeb111610097578063e5cc817011610071578063e5cc8170146113c2578063ef99c6d014611469578063f6b8ce7e1461152e578063faebac71146115f357610173565b8063baadeeb114611100578063d142c3d3146112fd578063d196b8ed146113a457610173565b80638d84807414610d19578063a0754f5114610dc0578063a58457c014610e85578063a7acd9f214610f4a578063a933aac914610ff1578063a99324781461103b57610173565b80636b4af4ea116101305780636b4af4ea146107435780636c5a0ab2146108085780636ec6f17b14610930578063756e5860146109725780637616212e14610a195780637d3a679614610b9357610173565b8063097ee8cd1461017857806315fc5c8c1461021f5780633b6d5b8c14610257578063474de4b5146103d657806363d1d85a146105c95780636511a23914610725575b600080fd5b6101a46004803603602081101561018e57600080fd5b810190808035906020019092919050505061162b565b6040518080602001828103825283818151815260200191508051906020019080838360005b838110156101e45780820151818401526020810190506101c9565b50505050905090810190601f1680156102115780820380516001836020036101000a031916815260200191505b509250505060405180910390f35b6102556004803603604081101561023557600080fd5b81019080803590602001909291908035906020019092919050505061178a565b005b6102836004803603602081101561026d57600080fd5b81019080803590602001909291905050506119f4565b60405180806020018060200180602001848103845287818151815260200191508051906020019080838360005b838110156102cb5780820151818401526020810190506102b0565b50505050905090810190601f1680156102f85780820380516001836020036101000a031916815260200191505b50848103835286818151815260200191508051906020019080838360005b83811015610331578082015181840152602081019050610316565b50505050905090810190601f16801561035e5780820380516001836020036101000a031916815260200191505b50848103825285818151815260200191508051906020019080838360005b8381101561039757808201518184015260208101905061037c565b50505050905090810190601f1680156103c45780820380516001836020036101000a031916815260200191505b50965050505050505060405180910390f35b6105c7600480360360808110156103ec57600080fd5b81019080803590602001909291908035906020019064010000000081111561041357600080fd5b82018360208201111561042557600080fd5b8035906020019184600183028401116401000000008311171561044757600080fd5b91908080601f016020809104026020016040519081016040528093929190818152602001838380828437600081840152601f19601f820116905080830192505050505050509192919290803590602001906401000000008111156104aa57600080fd5b8201836020820111156104bc57600080fd5b803590602001918460018302840111640100000000831117156104de57600080fd5b91908080601f016020809104026020016040519081016040528093929190818152602001838380828437600081840152601f19601f8201169050808301925050505050505091929192908035906020019064010000000081111561054157600080fd5b82018360208201111561055357600080fd5b8035906020019184600183028401116401000000008311171561057557600080fd5b91908080601f016020809104026020016040519081016040528093929190818152602001838380828437600081840152601f19601f820116905080830192505050505050509192919290505050611df6565b005b610723600480360360608110156105df57600080fd5b81019080803590602001909291908035906020019064010000000081111561060657600080fd5b82018360208201111561061857600080fd5b8035906020019184600183028401116401000000008311171561063a57600080fd5b91908080601f016020809104026020016040519081016040528093929190818152602001838380828437600081840152601f19601f8201169050808301925050505050505091929192908035906020019064010000000081111561069d57600080fd5b8201836020820111156106af57600080fd5b803590602001918460018302840111640100000000831117156106d157600080fd5b91908080601f016020809104026020016040519081016040528093929190818152602001838380828437600081840152601f19601f82011690508083019250505050505050919291929050505061203f565b005b61072d6121a4565b6040518082815260200191505060405180910390f35b6108066004803603604081101561075957600080fd5b81019080803590602001909291908035906020019064010000000081111561078057600080fd5b82018360208201111561079257600080fd5b803590602001918460018302840111640100000000831117156107b457600080fd5b91908080601f016020809104026020016040519081016040528093929190818152602001838380828437600081840152601f19601f8201169050808301925050505050505091929192905050506121ae565b005b6108346004803603602081101561081e57600080fd5b8101908080359060200190929190505050612346565b604051808681526020018581526020018060200180602001848152602001838103835286818151815260200191508051906020019080838360005b8381101561088a57808201518184015260208101905061086f565b50505050905090810190601f1680156108b75780820380516001836020036101000a031916815260200191505b50838103825285818151815260200191508051906020019080838360005b838110156108f05780820151818401526020810190506108d5565b50505050905090810190601f16801561091d5780820380516001836020036101000a031916815260200191505b5097505050505050505060405180910390f35b61095c6004803603602081101561094657600080fd5b81019080803590602001909291905050506125f3565b6040518082815260200191505060405180910390f35b61099e6004803603602081101561098857600080fd5b81019080803590602001909291905050506126ba565b6040518080602001828103825283818151815260200191508051906020019080838360005b838110156109de5780820151818401526020810190506109c3565b50505050905090810190601f168015610a0b5780820380516001836020036101000a031916815260200191505b509250505060405180910390f35b610b7d60048036036080811015610a2f57600080fd5b81019080803590602001909291908035906020019092919080359060200190640100000000811115610a6057600080fd5b820183602082011115610a7257600080fd5b80359060200191846001830284011164010000000083111715610a9457600080fd5b91908080601f016020809104026020016040519081016040528093929190818152602001838380828437600081840152601f19601f82011690508083019250505050505050919291929080359060200190640100000000811115610af757600080fd5b820183602082011115610b0957600080fd5b80359060200191846001830284011164010000000083111715610b2b57600080fd5b91908080601f016020809104026020016040519081016040528093929190818152602001838380828437600081840152601f19601f820116905080830192505050505050509192919290505050612819565b6040518082815260200191505060405180910390f35b610bbf60048036036020811015610ba957600080fd5b8101908080359060200190929190505050612b29565b60405180806020018581526020018060200180602001848103845288818151815260200191508051906020019080838360005b83811015610c0d578082015181840152602081019050610bf2565b50505050905090810190601f168015610c3a5780820380516001836020036101000a031916815260200191505b50848103835286818151815260200191508051906020019080838360005b83811015610c73578082015181840152602081019050610c58565b50505050905090810190601f168015610ca05780820380516001836020036101000a031916815260200191505b50848103825285818151815260200191508051906020019080838360005b83811015610cd9578082015181840152602081019050610cbe565b50505050905090810190601f168015610d065780820380516001836020036101000a031916815260200191505b5097505050505050505060405180910390f35b610d4560048036036020811015610d2f57600080fd5b8101908080359060200190929190505050612f83565b6040518080602001828103825283818151815260200191508051906020019080838360005b83811015610d85578082015181840152602081019050610d6a565b50505050905090810190601f168015610db25780820380516001836020036101000a031916815260200191505b509250505060405180910390f35b610e8360048036036040811015610dd657600080fd5b810190808035906020019092919080359060200190640100000000811115610dfd57600080fd5b820183602082011115610e0f57600080fd5b80359060200191846001830284011164010000000083111715610e3157600080fd5b91908080601f016020809104026020016040519081016040528093929190818152602001838380828437600081840152601f19601f8201169050808301925050505050505091929192905050506130e2565b005b610f4860048036036040811015610e9b57600080fd5b810190808035906020019092919080359060200190640100000000811115610ec257600080fd5b820183602082011115610ed457600080fd5b80359060200191846001830284011164010000000083111715610ef657600080fd5b91908080601f016020809104026020016040519081016040528093929190818152602001838380828437600081840152601f19601f82011690508083019250505050505050919291929050505061327a565b005b610f7660048036036020811015610f6057600080fd5b8101908080359060200190929190505050613412565b6040518080602001828103825283818151815260200191508051906020019080838360005b83811015610fb6578082015181840152602081019050610f9b565b50505050905090810190601f168015610fe35780820380516001836020036101000a031916815260200191505b509250505060405180910390f35b610ff9613571565b604051808273ffffffffffffffffffffffffffffffffffffffff1673ffffffffffffffffffffffffffffffffffffffff16815260200191505060405180910390f35b6110fe6004803603604081101561105157600080fd5b81019080803590602001909291908035906020019064010000000081111561107857600080fd5b82018360208201111561108a57600080fd5b803590602001918460018302840111640100000000831117156110ac57600080fd5b91908080601f016020809104026020016040519081016040528093929190818152602001838380828437600081840152601f19601f820116905080830192505050505050509192919290505050613596565b005b6112fb600480360360a081101561111657600080fd5b81019080803590602001909291908035906020019064010000000081111561113d57600080fd5b82018360208201111561114f57600080fd5b8035906020019184600183028401116401000000008311171561117157600080fd5b91908080601f016020809104026020016040519081016040528093929190818152602001838380828437600081840152601f19601f82011690508083019250505050505050919291929080359060200190929190803590602001906401000000008111156111de57600080fd5b8201836020820111156111f057600080fd5b8035906020019184600183028401116401000000008311171561121257600080fd5b91908080601f016020809104026020016040519081016040528093929190818152602001838380828437600081840152601f19601f8201169050808301925050505050505091929192908035906020019064010000000081111561127557600080fd5b82018360208201111561128757600080fd5b803590602001918460018302840111640100000000831117156112a957600080fd5b91908080601f016020809104026020016040519081016040528093929190818152602001838380828437600081840152601f19601f82011690508083019250505050505050919291929050505061372e565b005b6113296004803603602081101561131357600080fd5b8101908080359060200190929190505050613baf565b6040518080602001828103825283818151815260200191508051906020019080838360005b8381101561136957808201518184015260208101905061134e565b50505050905090810190601f1680156113965780820380516001836020036101000a031916815260200191505b509250505060405180910390f35b6113ac613d0e565b6040518082815260200191505060405180910390f35b6113ee600480360360208110156113d857600080fd5b8101908080359060200190929190505050613d18565b6040518080602001828103825283818151815260200191508051906020019080838360005b8381101561142e578082015181840152602081019050611413565b50505050905090810190601f16801561145b5780820380516001836020036101000a031916815260200191505b509250505060405180910390f35b61152c6004803603604081101561147f57600080fd5b8101908080359060200190929190803590602001906401000000008111156114a657600080fd5b8201836020820111156114b857600080fd5b803590602001918460018302840111640100000000831117156114da57600080fd5b91908080601f016020809104026020016040519081016040528093929190818152602001838380828437600081840152601f19601f820116905080830192505050505050509192919290505050613e77565b005b6115f16004803603604081101561154457600080fd5b81019080803590602001909291908035906020019064010000000081111561156b57600080fd5b82018360208201111561157d57600080fd5b8035906020019184600183028401116401000000008311171561159f57600080fd5b91908080601f016020809104026020016040519081016040528093929190818152602001838380828437600081840152601f19601f82011690508083019250505050505050919291929050505061400f565b005b6116296004803603604081101561160957600080fd5b8101908080359060200190929190803590602001909291905050506141a7565b005b6060600360003373ffffffffffffffffffffffffffffffffffffffff1673ffffffffffffffffffffffffffffffffffffffff168152602001908152602001600020600083815260200190815260200160002060070160009054906101000a900460ff1661169757600080fd5b600360003373ffffffffffffffffffffffffffffffffffffffff1673ffffffffffffffffffffffffffffffffffffffff16815260200190815260200160002060008381526020019081526020016000206004018054600181600116156101000203166002900480601f01602080910402602001604051908101604052809291908181526020018280546001816001161561010002031660029004801561177e5780601f106117535761010080835404028352916020019161177e565b820191906000526020600020905b81548152906001019060200180831161176157829003601f168201915b50505050509050919050565b3373ffffffffffffffffffffffffffffffffffffffff166000809054906101000a900473ffffffffffffffffffffffffffffffffffffffff1673ffffffffffffffffffffffffffffffffffffffff161461184c576040517f08c379a00000000000000000000000000000000000000000000000000000000081526004018080602001828103825260158152602001807f53656e646572206e6f7420617574686f72697a6564000000000000000000000081525060200191505060405180910390fd5b600360003373ffffffffffffffffffffffffffffffffffffffff1673ffffffffffffffffffffffffffffffffffffffff168152602001908152602001600020600083815260200190815260200160002060070160009054906101000a900460ff166118b657600080fd5b600460003373ffffffffffffffffffffffffffffffffffffffff1673ffffffffffffffffffffffffffffffffffffffff168152602001908152602001600020600082815260200190815260200160002060040160009054906101000a900460ff1661192057600080fd5b600360003373ffffffffffffffffffffffffffffffffffffffff1673ffffffffffffffffffffffffffffffffffffffff1681526020019081526020016000206000838152602001908152602001600020600601600460003373ffffffffffffffffffffffffffffffffffffffff1673ffffffffffffffffffffffffffffffffffffffff16815260200190815260200160002060008381526020019081526020016000206000015490806001815401808255809150509060018203906000526020600020016000909192909190915055505050565b60608060603373ffffffffffffffffffffffffffffffffffffffff166000809054906101000a900473ffffffffffffffffffffffffffffffffffffffff1673ffffffffffffffffffffffffffffffffffffffff1614611abb576040517f08c379a00000000000000000000000000000000000000000000000000000000081526004018080602001828103825260158152602001807f53656e646572206e6f7420617574686f72697a6564000000000000000000000081525060200191505060405180910390fd5b600460003373ffffffffffffffffffffffffffffffffffffffff1673ffffffffffffffffffffffffffffffffffffffff168152602001908152602001600020600085815260200190815260200160002060040160009054906101000a900460ff16611b2557600080fd5b600460003373ffffffffffffffffffffffffffffffffffffffff1673ffffffffffffffffffffffffffffffffffffffff16815260200190815260200160002060008581526020019081526020016000206001018054600181600116156101000203166002900480601f016020809104026020016040519081016040528092919081815260200182805460018160011615610100020316600290048015611c0c5780601f10611be157610100808354040283529160200191611c0c565b820191906000526020600020905b815481529060010190602001808311611bef57829003601f168201915b50505050509250600460003373ffffffffffffffffffffffffffffffffffffffff1673ffffffffffffffffffffffffffffffffffffffff16815260200190815260200160002060008581526020019081526020016000206002018054600181600116156101000203166002900480601f016020809104026020016040519081016040528092919081815260200182805460018160011615610100020316600290048015611cfa5780601f10611ccf57610100808354040283529160200191611cfa565b820191906000526020600020905b815481529060010190602001808311611cdd57829003601f168201915b50505050509150600460003373ffffffffffffffffffffffffffffffffffffffff1673ffffffffffffffffffffffffffffffffffffffff16815260200190815260200160002060008581526020019081526020016000206003018054600181600116156101000203166002900480601f016020809104026020016040519081016040528092919081815260200182805460018160011615610100020316600290048015611de85780601f10611dbd57610100808354040283529160200191611de8565b820191906000526020600020905b815481529060010190602001808311611dcb57829003601f168201915b505050505090509193909250565b3373ffffffffffffffffffffffffffffffffffffffff166000809054906101000a900473ffffffffffffffffffffffffffffffffffffffff1673ffffffffffffffffffffffffffffffffffffffff1614611eb8576040517f08c379a00000000000000000000000000000000000000000000000000000000081526004018080602001828103825260158152602001807f53656e646572206e6f7420617574686f72697a6564000000000000000000000081525060200191505060405180910390fd5b60001515600460003373ffffffffffffffffffffffffffffffffffffffff1673ffffffffffffffffffffffffffffffffffffffff168152602001908152602001600020600086815260200190815260200160002060040160009054906101000a900460ff16151514611f2957600080fd5b6001600081548092919060010191905055506040518060a0016040528085815260200184815260200183815260200182815260200160011515815250600460003373ffffffffffffffffffffffffffffffffffffffff1673ffffffffffffffffffffffffffffffffffffffff1681526020019081526020016000206000868152602001908152602001600020600082015181600001556020820151816001019080519060200190611fdb92919061432f565b506040820151816002019080519060200190611ff892919061432f565b50606082015181600301908051906020019061201592919061432f565b5060808201518160040160006101000a81548160ff02191690831515021790555090505050505050565b3373ffffffffffffffffffffffffffffffffffffffff166000809054906101000a900473ffffffffffffffffffffffffffffffffffffffff1673ffffffffffffffffffffffffffffffffffffffff1614612101576040517f08c379a00000000000000000000000000000000000000000000000000000000081526004018080602001828103825260158152602001807f53656e646572206e6f7420617574686f72697a6564000000000000000000000081525060200191505060405180910390fd5b6006600084815260200190815260200160002060050160009054906101000a900460ff1661212e57600080fd5b806006600085815260200190815260200160002060030190805190602001906121589291906143af565b50816006600085815260200190815260200160002060020190805190602001906121839291906143af565b50426006600085815260200190815260200160002060040181905550505050565b6000600154905090565b3373ffffffffffffffffffffffffffffffffffffffff166000809054906101000a900473ffffffffffffffffffffffffffffffffffffffff1673ffffffffffffffffffffffffffffffffffffffff1614612270576040517f08c379a00000000000000000000000000000000000000000000000000000000081526004018080602001828103825260158152602001807f53656e646572206e6f7420617574686f72697a6564000000000000000000000081525060200191505060405180910390fd5b600360003373ffffffffffffffffffffffffffffffffffffffff1673ffffffffffffffffffffffffffffffffffffffff168152602001908152602001600020600083815260200190815260200160002060070160009054906101000a900460ff166122da57600080fd5b80600360003373ffffffffffffffffffffffffffffffffffffffff1673ffffffffffffffffffffffffffffffffffffffff168152602001908152602001600020600084815260200190815260200160002060010190805190602001906123419291906143af565b505050565b60008060608060003373ffffffffffffffffffffffffffffffffffffffff166000809054906101000a900473ffffffffffffffffffffffffffffffffffffffff1673ffffffffffffffffffffffffffffffffffffffff1614612410576040517f08c379a00000000000000000000000000000000000000000000000000000000081526004018080602001828103825260158152602001807f53656e646572206e6f7420617574686f72697a6564000000000000000000000081525060200191505060405180910390fd5b6006600087815260200190815260200160002060050160009054906101000a900460ff1661243d57600080fd5b6006600087815260200190815260200160002060000154945060066000878152602001908152602001600020600101549350600660008781526020019081526020016000206003018054600181600116156101000203166002900480601f0160208091040260200160405190810160405280929190818152602001828054600181600116156101000203166002900480156125195780601f106124ee57610100808354040283529160200191612519565b820191906000526020600020905b8154815290600101906020018083116124fc57829003601f168201915b50505050509150600660008781526020019081526020016000206002018054600181600116156101000203166002900480601f0160208091040260200160405190810160405280929190818152602001828054600181600116156101000203166002900480156125ca5780601f1061259f576101008083540402835291602001916125ca565b820191906000526020600020905b8154815290600101906020018083116125ad57829003601f168201915b505050505092506006600087815260200190815260200160002060040154905091939590929450565b6000600360003373ffffffffffffffffffffffffffffffffffffffff1673ffffffffffffffffffffffffffffffffffffffff168152602001908152602001600020600083815260200190815260200160002060070160009054906101000a900460ff1661265f57600080fd5b600360003373ffffffffffffffffffffffffffffffffffffffff1673ffffffffffffffffffffffffffffffffffffffff1681526020019081526020016000206000838152602001908152602001600020600201549050919050565b6060600460003373ffffffffffffffffffffffffffffffffffffffff1673ffffffffffffffffffffffffffffffffffffffff168152602001908152602001600020600083815260200190815260200160002060040160009054906101000a900460ff1661272657600080fd5b600460003373ffffffffffffffffffffffffffffffffffffffff1673ffffffffffffffffffffffffffffffffffffffff16815260200190815260200160002060008381526020019081526020016000206001018054600181600116156101000203166002900480601f01602080910402602001604051908101604052809291908181526020018280546001816001161561010002031660029004801561280d5780601f106127e25761010080835404028352916020019161280d565b820191906000526020600020905b8154815290600101906020018083116127f057829003601f168201915b50505050509050919050565b60003373ffffffffffffffffffffffffffffffffffffffff166000809054906101000a900473ffffffffffffffffffffffffffffffffffffffff1673ffffffffffffffffffffffffffffffffffffffff16146128dd576040517f08c379a00000000000000000000000000000000000000000000000000000000081526004018080602001828103825260158152602001807f53656e646572206e6f7420617574686f72697a6564000000000000000000000081525060200191505060405180910390fd5b600360003373ffffffffffffffffffffffffffffffffffffffff1673ffffffffffffffffffffffffffffffffffffffff168152602001908152602001600020600086815260200190815260200160002060070160009054906101000a900460ff1661294757600080fd5b600460003373ffffffffffffffffffffffffffffffffffffffff1673ffffffffffffffffffffffffffffffffffffffff168152602001908152602001600020600085815260200190815260200160002060040160009054906101000a900460ff166129b157600080fd5b6000600554905085600660008381526020019081526020016000206000018190555084600660008381526020019081526020016000206001018190555083600660008381526020019081526020016000206002019080519060200190612a189291906143af565b5082600660008381526020019081526020016000206003019080519060200190612a439291906143af565b5042600660008381526020019081526020016000206004018190555060016006600083815260200190815260200160002060050160006101000a81548160ff021916908315150217905550600360003373ffffffffffffffffffffffffffffffffffffffff1673ffffffffffffffffffffffffffffffffffffffff168152602001908152602001600020600087815260200190815260200160002060050181908060018154018082558091505090600182039060005260206000200160009091929091909150555060056000815480929190600101919050555080915050949350505050565b606060006060803373ffffffffffffffffffffffffffffffffffffffff166000809054906101000a900473ffffffffffffffffffffffffffffffffffffffff1673ffffffffffffffffffffffffffffffffffffffff1614612bf2576040517f08c379a00000000000000000000000000000000000000000000000000000000081526004018080602001828103825260158152602001807f53656e646572206e6f7420617574686f72697a6564000000000000000000000081525060200191505060405180910390fd5b600360003373ffffffffffffffffffffffffffffffffffffffff1673ffffffffffffffffffffffffffffffffffffffff168152602001908152602001600020600086815260200190815260200160002060070160009054906101000a900460ff16612c5c57600080fd5b600360003373ffffffffffffffffffffffffffffffffffffffff1673ffffffffffffffffffffffffffffffffffffffff16815260200190815260200160002060008681526020019081526020016000206001018054600181600116156101000203166002900480601f016020809104026020016040519081016040528092919081815260200182805460018160011615610100020316600290048015612d435780601f10612d1857610100808354040283529160200191612d43565b820191906000526020600020905b815481529060010190602001808311612d2657829003601f168201915b50505050509350600360003373ffffffffffffffffffffffffffffffffffffffff1673ffffffffffffffffffffffffffffffffffffffff1681526020019081526020016000206000868152602001908152602001600020600201549250600360003373ffffffffffffffffffffffffffffffffffffffff1673ffffffffffffffffffffffffffffffffffffffff16815260200190815260200160002060008681526020019081526020016000206003018054600181600116156101000203166002900480601f016020809104026020016040519081016040528092919081815260200182805460018160011615610100020316600290048015612e875780601f10612e5c57610100808354040283529160200191612e87565b820191906000526020600020905b815481529060010190602001808311612e6a57829003601f168201915b50505050509150600360003373ffffffffffffffffffffffffffffffffffffffff1673ffffffffffffffffffffffffffffffffffffffff16815260200190815260200160002060008681526020019081526020016000206004018054600181600116156101000203166002900480601f016020809104026020016040519081016040528092919081815260200182805460018160011615610100020316600290048015612f755780601f10612f4a57610100808354040283529160200191612f75565b820191906000526020600020905b815481529060010190602001808311612f5857829003601f168201915b505050505090509193509193565b6060600460003373ffffffffffffffffffffffffffffffffffffffff1673ffffffffffffffffffffffffffffffffffffffff168152602001908152602001600020600083815260200190815260200160002060040160009054906101000a900460ff16612fef57600080fd5b600460003373ffffffffffffffffffffffffffffffffffffffff1673ffffffffffffffffffffffffffffffffffffffff16815260200190815260200160002060008381526020019081526020016000206003018054600181600116156101000203166002900480601f0160208091040260200160405190810160405280929190818152602001828054600181600116156101000203166002900480156130d65780601f106130ab576101008083540402835291602001916130d6565b820191906000526020600020905b8154815290600101906020018083116130b957829003601f168201915b50505050509050919050565b3373ffffffffffffffffffffffffffffffffffffffff166000809054906101000a900473ffffffffffffffffffffffffffffffffffffffff1673ffffffffffffffffffffffffffffffffffffffff16146131a4576040517f08c379a00000000000000000000000000000000000000000000000000000000081526004018080602001828103825260158152602001807f53656e646572206e6f7420617574686f72697a6564000000000000000000000081525060200191505060405180910390fd5b600460003373ffffffffffffffffffffffffffffffffffffffff1673ffffffffffffffffffffffffffffffffffffffff168152602001908152602001600020600083815260200190815260200160002060040160009054906101000a900460ff1661320e57600080fd5b80600460003373ffffffffffffffffffffffffffffffffffffffff1673ffffffffffffffffffffffffffffffffffffffff168152602001908152602001600020600084815260200190815260200160002060010190805190602001906132759291906143af565b505050565b3373ffffffffffffffffffffffffffffffffffffffff166000809054906101000a900473ffffffffffffffffffffffffffffffffffffffff1673ffffffffffffffffffffffffffffffffffffffff161461333c576040517f08c379a00000000000000000000000000000000000000000000000000000000081526004018080602001828103825260158152602001807f53656e646572206e6f7420617574686f72697a6564000000000000000000000081525060200191505060405180910390fd5b600360003373ffffffffffffffffffffffffffffffffffffffff1673ffffffffffffffffffffffffffffffffffffffff168152602001908152602001600020600083815260200190815260200160002060070160009054906101000a900460ff166133a657600080fd5b80600360003373ffffffffffffffffffffffffffffffffffffffff1673ffffffffffffffffffffffffffffffffffffffff1681526020019081526020016000206000848152602001908152602001600020600401908051906020019061340d9291906143af565b505050565b6060600460003373ffffffffffffffffffffffffffffffffffffffff1673ffffffffffffffffffffffffffffffffffffffff168152602001908152602001600020600083815260200190815260200160002060040160009054906101000a900460ff1661347e57600080fd5b600460003373ffffffffffffffffffffffffffffffffffffffff1673ffffffffffffffffffffffffffffffffffffffff16815260200190815260200160002060008381526020019081526020016000206002018054600181600116156101000203166002900480601f0160208091040260200160405190810160405280929190818152602001828054600181600116156101000203166002900480156135655780601f1061353a57610100808354040283529160200191613565565b820191906000526020600020905b81548152906001019060200180831161354857829003601f168201915b50505050509050919050565b6000809054906101000a900473ffffffffffffffffffffffffffffffffffffffff1681565b3373ffffffffffffffffffffffffffffffffffffffff166000809054906101000a900473ffffffffffffffffffffffffffffffffffffffff1673ffffffffffffffffffffffffffffffffffffffff1614613658576040517f08c379a00000000000000000000000000000000000000000000000000000000081526004018080602001828103825260158152602001807f53656e646572206e6f7420617574686f72697a6564000000000000000000000081525060200191505060405180910390fd5b600460003373ffffffffffffffffffffffffffffffffffffffff1673ffffffffffffffffffffffffffffffffffffffff168152602001908152602001600020600083815260200190815260200160002060040160009054906101000a900460ff166136c257600080fd5b80600460003373ffffffffffffffffffffffffffffffffffffffff1673ffffffffffffffffffffffffffffffffffffffff168152602001908152602001600020600084815260200190815260200160002060020190805190602001906137299291906143af565b505050565b3373ffffffffffffffffffffffffffffffffffffffff166000809054906101000a900473ffffffffffffffffffffffffffffffffffffffff1673ffffffffffffffffffffffffffffffffffffffff16146137f0576040517f08c379a00000000000000000000000000000000000000000000000000000000081526004018080602001828103825260158152602001807f53656e646572206e6f7420617574686f72697a6564000000000000000000000081525060200191505060405180910390fd5b600360003373ffffffffffffffffffffffffffffffffffffffff1673ffffffffffffffffffffffffffffffffffffffff168152602001908152602001600020600086815260200190815260200160002060070160009054906101000a900460ff161561385b57600080fd5b60026000815480929190600101919050555060405180610100016040528086815260200185815260200184815260200183815260200182815260200160006040519080825280602002602001820160405280156138c75781602001602082028038833980820191505090505b50815260200160006040519080825280602002602001820160405280156138fd5781602001602082028038833980820191505090505b50815260200160011515815250600360003373ffffffffffffffffffffffffffffffffffffffff1673ffffffffffffffffffffffffffffffffffffffff168152602001908152602001600020600087815260200190815260200160002060008201518160000155602082015181600101908051906020019061398092919061432f565b506040820151816002015560608201518160030190805190602001906139a792919061432f565b5060808201518160040190805190602001906139c492919061432f565b5060a08201518160050190805190602001906139e192919061442f565b5060c08201518160060190805190602001906139fe92919061442f565b5060e08201518160070160006101000a81548160ff0219169083151502179055509050507f266cac5bd3ddacb16cae55df15a1102bfd85cdf2374c4e068c53856f594b577d858585858560405180868152602001806020018581526020018060200180602001848103845288818151815260200191508051906020019080838360005b83811015613a9c578082015181840152602081019050613a81565b50505050905090810190601f168015613ac95780820380516001836020036101000a031916815260200191505b50848103835286818151815260200191508051906020019080838360005b83811015613b02578082015181840152602081019050613ae7565b50505050905090810190601f168015613b2f5780820380516001836020036101000a031916815260200191505b50848103825285818151815260200191508051906020019080838360005b83811015613b68578082015181840152602081019050613b4d565b50505050905090810190601f168015613b955780820380516001836020036101000a031916815260200191505b509850505050505050505060405180910390a15050505050565b6060600360003373ffffffffffffffffffffffffffffffffffffffff1673ffffffffffffffffffffffffffffffffffffffff168152602001908152602001600020600083815260200190815260200160002060070160009054906101000a900460ff16613c1b57600080fd5b600360003373ffffffffffffffffffffffffffffffffffffffff1673ffffffffffffffffffffffffffffffffffffffff16815260200190815260200160002060008381526020019081526020016000206001018054600181600116156101000203166002900480601f016020809104026020016040519081016040528092919081815260200182805460018160011615610100020316600290048015613d025780601f10613cd757610100808354040283529160200191613d02565b820191906000526020600020905b815481529060010190602001808311613ce557829003601f168201915b50505050509050919050565b6000600254905090565b6060600360003373ffffffffffffffffffffffffffffffffffffffff1673ffffffffffffffffffffffffffffffffffffffff168152602001908152602001600020600083815260200190815260200160002060070160009054906101000a900460ff16613d8457600080fd5b600360003373ffffffffffffffffffffffffffffffffffffffff1673ffffffffffffffffffffffffffffffffffffffff16815260200190815260200160002060008381526020019081526020016000206003018054600181600116156101000203166002900480601f016020809104026020016040519081016040528092919081815260200182805460018160011615610100020316600290048015613e6b5780601f10613e4057610100808354040283529160200191613e6b565b820191906000526020600020905b815481529060010190602001808311613e4e57829003601f168201915b50505050509050919050565b3373ffffffffffffffffffffffffffffffffffffffff166000809054906101000a900473ffffffffffffffffffffffffffffffffffffffff1673ffffffffffffffffffffffffffffffffffffffff1614613f39576040517f08c379a00000000000000000000000000000000000000000000000000000000081526004018080602001828103825260158152602001807f53656e646572206e6f7420617574686f72697a6564000000000000000000000081525060200191505060405180910390fd5b600360003373ffffffffffffffffffffffffffffffffffffffff1673ffffffffffffffffffffffffffffffffffffffff168152602001908152602001600020600083815260200190815260200160002060070160009054906101000a900460ff16613fa357600080fd5b80600360003373ffffffffffffffffffffffffffffffffffffffff1673ffffffffffffffffffffffffffffffffffffffff1681526020019081526020016000206000848152602001908152602001600020600301908051906020019061400a9291906143af565b505050565b3373ffffffffffffffffffffffffffffffffffffffff166000809054906101000a900473ffffffffffffffffffffffffffffffffffffffff1673ffffffffffffffffffffffffffffffffffffffff16146140d1576040517f08c379a00000000000000000000000000000000000000000000000000000000081526004018080602001828103825260158152602001807f53656e646572206e6f7420617574686f72697a6564000000000000000000000081525060200191505060405180910390fd5b600460003373ffffffffffffffffffffffffffffffffffffffff1673ffffffffffffffffffffffffffffffffffffffff168152602001908152602001600020600083815260200190815260200160002060040160009054906101000a900460ff1661413b57600080fd5b80600460003373ffffffffffffffffffffffffffffffffffffffff1673ffffffffffffffffffffffffffffffffffffffff168152602001908152602001600020600084815260200190815260200160002060030190805190602001906141a29291906143af565b505050565b3373ffffffffffffffffffffffffffffffffffffffff166000809054906101000a900473ffffffffffffffffffffffffffffffffffffffff1673ffffffffffffffffffffffffffffffffffffffff1614614269576040517f08c379a00000000000000000000000000000000000000000000000000000000081526004018080602001828103825260158152602001807f53656e646572206e6f7420617574686f72697a6564000000000000000000000081525060200191505060405180910390fd5b600360003373ffffffffffffffffffffffffffffffffffffffff1673ffffffffffffffffffffffffffffffffffffffff168152602001908152602001600020600083815260200190815260200160002060070160009054906101000a900460ff166142d357600080fd5b80600360003373ffffffffffffffffffffffffffffffffffffffff1673ffffffffffffffffffffffffffffffffffffffff1681526020019081526020016000206000848152602001908152602001600020600201819055505050565b828054600181600116156101000203166002900490600052602060002090601f016020900481019282601f1061437057805160ff191683800117855561439e565b8280016001018555821561439e579182015b8281111561439d578251825591602001919060010190614382565b5b5090506143ab919061447c565b5090565b828054600181600116156101000203166002900490600052602060002090601f016020900481019282601f106143f057805160ff191683800117855561441e565b8280016001018555821561441e579182015b8281111561441d578251825591602001919060010190614402565b5b50905061442b919061447c565b5090565b82805482825590600052602060002090810192821561446b579160200282015b8281111561446a57825182559160200191906001019061444f565b5b509050614478919061447c565b5090565b61449e91905b8082111561449a576000816000905550600101614482565b5090565b9056fea265627a7a723158203c9d8c814d3c62b8d21e2f603926b37087c9efc60c0a7fdaeb49bf60036c1e3b64736f6c63430005100032",
  "source": "pragma solidity ^0.5.0;\n\ncontract MedicalRecords {\n    \n    address public SmartContractOwner;\n    constructor(address a) public{\n        SmartContractOwner = msg.sender; \n    }\n\n    modifier onlySmartContractOwner{\n        require(SmartContractOwner == msg.sender, \"Sender not authorized\");\n        _;\n    }\n\n    uint numDoctors;\n    uint numPatients;\n    struct Patient {  \n        uint patID;         \n        string name;\n        uint age;\n        string contact;\n        string homeAddress;\n        uint[] treatments;\n        uint[] doctors;\n        bool registerStatus;\n    }\n\n\n    \n    mapping(address => mapping(uint => Patient)) patientDetails;\n    mapping(address => mapping(uint => Doctor)) doctorDetails;\n\n    event LogNewPatient (uint index, string name,  uint age, string contact, string homeAddress);\n\n    function addPatient(uint patID,string memory name, uint age, string memory contact, string memory homeAddress) \n    public onlySmartContractOwner{\n        require(!patientDetails[msg.sender][patID].registerStatus);\n        numPatients++;\n        patientDetails[msg.sender][patID]=Patient(patID, name, age, contact, homeAddress, new uint[](0), new uint[](0), true);\n        emit LogNewPatient(patID,name,age,contact,homeAddress);\n    }\n    \n    function getPatient(uint patID) public onlySmartContractOwner view returns (string memory _name, uint _age, string memory _contact, string memory _homeAddress) {\n        require(patientDetails[msg.sender][patID].registerStatus);\n        _name = patientDetails[msg.sender][patID].name;\n        _age = patientDetails[msg.sender][patID].age;\n        _contact = patientDetails[msg.sender][patID].contact;\n        _homeAddress = patientDetails[msg.sender][patID].homeAddress;\n    }\n\n    function setPatientName(uint patID, string memory name) public onlySmartContractOwner{\n        require(patientDetails[msg.sender][patID].registerStatus);\n        patientDetails[msg.sender][patID].name = name;\n    }\n\n    function setPatientAge(uint patID, uint age) public onlySmartContractOwner{\n        require(patientDetails[msg.sender][patID].registerStatus);\n        patientDetails[msg.sender][patID].age = age;\n    }\n    function setPatientContact(uint patID, string memory contact) public onlySmartContractOwner{\n        require(patientDetails[msg.sender][patID].registerStatus);\n        patientDetails[msg.sender][patID].contact = contact;\n    }\n    function setPatientAddress(uint patID, string memory homeAddress) public onlySmartContractOwner{\n        require(patientDetails[msg.sender][patID].registerStatus);\n        patientDetails[msg.sender][patID].homeAddress = homeAddress;\n    }\n\n    function getPatientName(uint patID) public view returns (string memory){\n        require(patientDetails[msg.sender][patID].registerStatus);\n        return patientDetails[msg.sender][patID].name;\n    }\n    function getPatientAge(uint patID) public view returns (uint){\n        require(patientDetails[msg.sender][patID].registerStatus);\n        return patientDetails[msg.sender][patID].age;\n    }\n    function getPatientContact(uint patID) public view returns (string memory){\n        require(patientDetails[msg.sender][patID].registerStatus);\n        return patientDetails[msg.sender][patID].contact;\n    }\n    \n    function getPatientAddress(uint patID) public view returns (string memory){\n        require(patientDetails[msg.sender][patID].registerStatus);\n        return patientDetails[msg.sender][patID].homeAddress;\n    }\n    \n    struct Doctor{\n        uint docID;\n        string name;\n        string medicalFacility;\n        string medicalSpecialty;\n        bool registerStatus;\n    }\n    \n    function addDoctor(uint docID,string memory name, string memory medicalFacility, string memory medicalSpecialty) \n    public onlySmartContractOwner{\n        require(doctorDetails[msg.sender][docID].registerStatus==false);\n        numDoctors++;\n        doctorDetails[msg.sender][docID]=Doctor(docID, name, medicalFacility, medicalSpecialty, true);\n    }\n    \n    function getDoctorDetails(uint docID) public onlySmartContractOwner view returns (string memory _name, string memory _medicalFacility, string memory _medicalSpecialty) {\n        require(doctorDetails[msg.sender][docID].registerStatus);\n        _name = doctorDetails[msg.sender][docID].name;\n        _medicalFacility = doctorDetails[msg.sender][docID].medicalFacility;\n        _medicalSpecialty = doctorDetails[msg.sender][docID].medicalSpecialty;\n    }\n    \n    function treatPatient(uint patID, uint docID) public onlySmartContractOwner {\n        require(patientDetails[msg.sender][patID].registerStatus);\n        require(doctorDetails[msg.sender][docID].registerStatus);\n        patientDetails[msg.sender][patID].doctors.push(doctorDetails[msg.sender][docID].docID);\n    }\n    \n    function setDoctorName(uint docID, string memory name) public onlySmartContractOwner{\n        require(doctorDetails[msg.sender][docID].registerStatus);\n        doctorDetails[msg.sender][docID].name = name;\n    }\n    function setDoctorMedicalFacility(uint docID, string memory facility) public onlySmartContractOwner{\n        require(doctorDetails[msg.sender][docID].registerStatus);\n        doctorDetails[msg.sender][docID].medicalFacility = facility;\n    }\n    function setDoctorSpecialty(uint docID, string memory specialty) public onlySmartContractOwner{\n        require(doctorDetails[msg.sender][docID].registerStatus);\n        doctorDetails[msg.sender][docID].medicalSpecialty = specialty;\n    }\n\n    function getDoctorName(uint docID) public view returns (string memory){\n        require(doctorDetails[msg.sender][docID].registerStatus);\n        return doctorDetails[msg.sender][docID].name;\n    }\n\n    function getDoctorMedicalFacility(uint docID) public view returns (string memory){\n        require(doctorDetails[msg.sender][docID].registerStatus);\n        return doctorDetails[msg.sender][docID].medicalFacility;\n    }\n    function getDoctorSpecialty(uint docID) public view returns (string memory){\n        require(doctorDetails[msg.sender][docID].registerStatus);\n        return doctorDetails[msg.sender][docID].medicalSpecialty;\n    }\n\n    function getNumDoctors() public view returns (uint) {\n      return numDoctors;\n    }\n\n    function getNumPatients() public view returns (uint) {\n      return numPatients;\n    }\n    \n    struct Treatment {\n        uint patientID;\n        uint doctorID;\n        string diagnosis;\n        string medicine;\n        uint date;\n        bool registerStatus;\n    }\n    \n    uint lastTreatmentID = 0;\n    mapping(uint => Treatment) treatments;\n    \n    function createTreatment(uint patientID, uint doctorID, string memory diagnosis, string memory medicine) \n    public onlySmartContractOwner returns (uint) {\n        require(patientDetails[msg.sender][patientID].registerStatus);\n        require(doctorDetails[msg.sender][doctorID].registerStatus);\n        uint id=lastTreatmentID;\n        treatments[id].patientID = patientID;\n        treatments[id].doctorID = doctorID;\n        treatments[id].diagnosis = diagnosis;\n        treatments[id].medicine = medicine;\n        treatments[id].date = now;\n        treatments[id].registerStatus = true;\n        patientDetails[msg.sender][patientID].treatments.push(id);\n        lastTreatmentID++;\n        return id;\n    }\n    \n    function getTreatmentDetails(uint treatmentID) public onlySmartContractOwner view returns (uint _patientID, uint _doctorID, string memory _diagnosis, string memory _medicine, uint _date) {\n        require(treatments[treatmentID].registerStatus);\n        _patientID = treatments[treatmentID].patientID;\n        _doctorID = treatments[treatmentID].doctorID;\n        _medicine = treatments[treatmentID].medicine;\n        _diagnosis = treatments[treatmentID].diagnosis;\n        _date = treatments[treatmentID].date;\n    }\n\n    function editTreatmentDetails(uint treatmentID, string memory diagnosis, string memory medicine) public onlySmartContractOwner{\n        require(treatments[treatmentID].registerStatus);\n        treatments[treatmentID].medicine = medicine;\n        treatments[treatmentID].diagnosis = diagnosis;\n        treatments[treatmentID].date = now;\n    }\n}",
  "sourcePath": "/Users/anamaria/Desktop/Proiect/contracts/MedicalRecords.sol",
  "compiler": {
    "name": "solc",
    "version": "0.5.16+commit.9c3226ce.Emscripten.clang"
  },
  "schemaVersion": "3.3.4",
  "updatedAt": "2021-04-26T13:31:50.722Z",
  "devdoc": {
    "methods": {}
  },
  "userdoc": {
    "methods": {}
  }
}